:020000040800F2
:1000000000000220950D0008DD0B0008E50B00083C
:10001000ED0B0008F50B0008FD0B000800000000C8
:10002000000000000000000000000000F157000880
:10003000050C000800000000415A000805270008D0
:10004000E50D0008E50D0008E50D0008E50D0008C8
:10005000E50D0008E50D0008E50D0008E50D0008B8
:10006000E50D0008E50D0008E50D0008E50D0008A8
:10007000E50D0008E50D0008E50D0008E50D000898
:10008000E50D0008E50D0008E50D00080000000082
:10009000000000000000000000000000E50D000866
:1000A000E50D0008150C0008E50D0008E50D000839
:1000B000E50D0008E50D0008E50D0008E50D000858
:1000C000E50D0008E50D0008E50D0008E50D000848
:1000D000E50D0008E50D0008E50D00080000000032
:1000E000E50D0008E50D0008E50D00080000000022
:1000F000000000000000000000000000E50D000806
:1001000000000000E50D0008E50D0008E50D000801
:1001100000000000000000000000000000000000DF
:10012000E50D0008E50D0008E50D0008E50D0008E7
:10013000E50D0008000000000000000000000000C5
:10014000000000000000000000000000E50D0008B5
:10015000E50D0008E50D0008E50D0008E50D0008B7
:10016000E50D0008E50D000800000000000000009B
:10017000000000000000000000000000000000007F
:1001800000000000E50D0008000000000000000075
:08019000E50D0008E50D000873
:1001A00010B5054C237833B9044B13B10448AFF3B1
:1001B00000800123237010BD6C00002000000000AF
:1001C000206E000808B5034B1BB103490348AFF389
:1001D000008008BD0000000070000020206E0008B4
:1001E00001F0FF01102A2BDB10F0070F08D010F8E8
:1001F000013B013A8B422DD010F0070F42B3F6D1EC
:10020000F0B441EA012141EA014122F007047FF004
:1002100000070023F0E80256083C85EA010586EA5B
:10022000010685FA47F5A3FA87F586FA47F6A5FA97
:1002300087F68EB9EED1F0BC01F0FF0102F00702A3
:1002400032B110F8013B013A83EA010313B1F8D14E
:100250000020704701387047002D06BF354603382F
:10026000073815F0010F07D1013015F4807F02BF68
:10027000013015F4C03F0130F0BC0138704700BFB9
:1002800053B94AB9002908BF00281CBF4FF0FF31FD
:100290004FF0FF3000F088B9ADF1080C6DE904CEE5
:1002A00000F006F8DDF804E0DDE9022304B0704751
:1002B0002DE9F047089D8E4604468846002B4AD11A
:1002C0008A42174662D9B2FA82F64EB1C6F12003CD
:1002D00001FA06F820FA03F3B74043EA0808B440ED
:1002E0004FEA174E1FFA87FCB8FBFEF1230C0EFBFA
:1002F000118843EA084301FB0CF29A4209D9FB1822
:1003000001F1FF3080F0EA809A4240F2E780023942
:100310003B449A1AA3B2B2FBFEF00EFB102243EA52
:10032000024300FB0CFC9C4509D9FB1800F1FF328D
:1003300080F0D6809C4540F2D3803B44023840EAAE
:100340000140A3EB0C0300211DB1F3400022C5E9DD
:100350000032BDE8F0878B4205D90DB1C5E9000137
:1003600000210846F5E7B3FA83F1002946D1734529
:1003700002D3824200F20581841A6EEB030201204F
:100380009046002DE5D0C5E90048E2E7002A00F0DC
:100390009080B2FA82F6002E40F0A4808A1A030CF4
:1003A0004FEA174E80B2BCB20121B2FBFEFC0EFB3D
:1003B0001C2243EA024304FB0CF29A4207D9FB18C1
:1003C0000CF1FF3802D29A4200F2E080C4469B1A38
:1003D000B3FBFEF20EFB123340EA034302FB04F4CC
:1003E0009C4207D9FB1802F1FF3002D29C4200F276
:1003F000CA8002461B1B42EA0C40A5E7C1F1200659
:100400008B4022FA06F71F430EFA01F420FA06F396
:100410002EFA06FE4FEA1749234300FA01F81FFAA5
:1004200087FCBEFBF9F01C0C09FB10EE44EA0E44FD
:1004300000FB0CFEA64502FA01F209D93C1900F1B5
:10044000FF3A80F09C80A64540F2998002383C44F7
:10045000A4EB0E041FFA83FEB4FBF9F309FB13446B
:100460004EEA044403FB0CFCA44508D93C1903F1F3
:10047000FF3E80F08280A4457FD9023B3C4443EAA2
:100480000040A4EB0C04A0FB02EC64457346E1467B
:1004900062D35FD05DB1B8EB030264EB090404FAE8
:1004A00006F622FA01F31E43CC40C5E900640021A0
:1004B0004FE7B1FBF2FC010C41EA0E4180B240EA89
:1004C00001423B4638463C46B846BE462026B1FB74
:1004D000F7F1A2EB080241EA0C4166E7014618E792
:1004E00010462CE7C6F120022EFA02F3B740B140C5
:1004F00020FA02F24FEA174E0A43B3FBFEF8BCB2F1
:100500000EFB1833110C41EA034108FB04F9B0401B
:1005100089454FEA104380B23ED9791808F1FF3C73
:1005200001D289451FD8A1EB0901B1FBFEF909FBF6
:1005300004F80EFB191192B242EA0142424529D257
:10054000BA1809F1FF31C4D24245C2D2A9F1020161
:100550003A44BEE7F0459DD2BEEB02036CEB070CBC
:100560000138E14696E7A7EB09094944A8F1020CD6
:10057000B1FBFEF909FB04F8DBE773467FE7504661
:1005800066E70846FDE63B44023A33E7ACF1020C6D
:100590003B441CE749469CE7A1EB0901C446B1FB7B
:1005A000FEF909FB04F8C4E7704700BF80B5A4B0AA
:1005B00000AF00F019FC00F071F900F0F7F900F05D
:1005C000CBF902F0B9F8464802F06CFA0346454A06
:1005D0001360002300220021434802F0B9F90346CA
:1005E000424A1360002300220121414802F0B0F981
:1005F0000346404A136007F16C0324220021184689
:1006000005F0E9FD3C4BFB664FF40073C7F8803002
:100610001823C7F8843007F16C031A4600213748C5
:1006200002F0D4F80346364A136007F14803242247
:100630000021184605F0CFFD324BBB644FF4007328
:10064000FB6518233B6607F148031A4600212E4834
:1006500002F0BCF803462D4A136007F1240324225C
:100660000021184605F0B7FD294B7B624FF400735B
:10067000BB631823FB6307F124031A4600212548B6
:1006800002F0A4F80346244A13603B4624220021CA
:10069000184605F0A0FD214B3B604FF400737B61D1
:1006A0001823BB613B461A4600211D4802F08EF814
:1006B00003461C4A13601C4802F0DBFA03461B4A3F
:1006C00013601B4A0221052002F059FB0346194A18
:1006D000136002F055F803F001FE00BFFDE700BF14
:1006E000F06E0008D80000200D080008040100206A
:1006F0003108000808010020686E0008390700086A
:10070000FC000020746E000879070008F400002047
:10071000806E000859070008F80000208C6E000861
:10072000A907000800010020C86E0008D0000020C2
:10073000D86E0008D400002080B582B000AF786089
:10074000044B1B680133034A1360642002F0D0F8A5
:1007500000BFF5E7E400002080B582B000AF78600C
:10076000044B1B680133034A1360642002F0C0F895
:1007700000BFF5E7DC00002080B582B000AF7860F4
:10078000074B1B680121184602F0CCF9054B1B688A
:100790000133044A1360642002F0AAF800BFEFE7B7
:1007A000D8000020E000002080B582B000AF786063
:1007B000114B1B6841F28831184602F045F90F4B86
:1007C0001B684FF47A71184602F03EF90C4B18681A
:1007D0004FF0FF330022012102F0E6F9094805F04D
:1007E000A5FC094B1B680133074A1360642002F023
:1007F0007FF800BFEAE700BF0401002008010020E5
:10080000D8000020986E0008E800002080B483B073
:1008100000AF7860054B1B680133044A136000BFCA
:100820000C37BD465DF8047B704700BFEC0000202C
:1008300080B483B000AF7860054B1B680133044A75
:10084000136000BF0C37BD465DF8047B704700BFE6
:10085000F000002080B483B000AF786000BF084B88
:100860001B6803F08003002BF9D07B68044ADBB2DD
:1008700053607B6818460C37BD465DF8047B7047B3
:100880000044004080B582B000AF78607868FFF720
:10089000E1FF7B6818460837BD4680BD80B594B03F
:1008A00000AF07F1200330220021184605F093FC29
:1008B00007F10C0300221A605A609A60DA601A612C
:1008C0000023BB60224B1B6C214A43F0805313640E
:1008D0001F4B1B6C03F08053BB60BB6800237B6025
:1008E0001C4B1B681B4A43F440431360194B1B68A5
:1008F00003F440437B607B6802233B620123FB627D
:1009000010233B630023BB6307F12003184600F06C
:1009100013FD0346002B01D000F074F80F23FB6099
:1009200000233B6100237B610023BB610023FB614B
:1009300007F10C030021184600F076FF0346002B58
:1009400001D000F05FF800BF5037BD4680BD00BF4A
:10095000003802400070004080B500AF114B124AD1
:100960001A60104B4FF4E1325A600E4B00229A602D
:100970000C4B0022DA600B4B00221A61094B0C224F
:100980005A61084B00229A61064B0022DA61054841
:1009900001F0CAFB0346002B01D000F033F800BF82
:1009A00080BD00BF880000200044004080B483B0B8
:1009B00000AF00237B60094B1B6B084A43F0010327
:1009C0001363064B1B6B03F001037B607B6800BF66
:1009D0000C37BD465DF8047B704700BF003802400D
:1009E00080B582B000AF78607B681B68044A934290
:1009F00001D100F01BFA00BF0837BD4680BD00BF23
:100A00000000014080B400AF72B600BF00BFFDE738
:100A100080B582B000AF00237B60124B5B6C114A43
:100A200043F4804353640F4B5B6C03F480437B605F
:100A30007B6800233B600B4B1B6C0A4A43F08053DE
:100A40001364084B1B6C03F080533B603B6800222F
:100A50000F216FF0010000F0C1FA00BF0837BD465A
:100A600080BD00BF0038024080B58AB000AF78601A
:100A700007F1140300221A605A609A60DA601A6162
:100A80007B681B68194A93422BD100233B61184BAA
:100A90001B6C174A43F400331364154B1B6C03F4AF
:100AA00000333B613B690023FB60114B1B6B104A19
:100AB00043F0010313630E4B1B6B03F00103FB6058
:100AC000FB680C237B610223BB610023FB610323D2
:100AD0003B6207237B6207F114031946054800F0C7
:100AE000A7FA00BF2837BD4680BD00BF00440040C4
:100AF000003802400000024080B58CB000AF786042
:100B00000023BB6200237B620023BB602E4B5B6C27
:100B10002D4A43F0010353642B4B5B6C03F001033C
:100B2000BB60BB6807F10C0207F1100311461846C1
:100B300001F05AF801F044F8B862BB6A234AA2FBFC
:100B400003239B0C013B7B62214B224A1A60204B02
:100B500040F2E732DA601E4A7B6A53601C4B002287
:100B60001A611B4B00229A60194B00229A611848A7
:100B700001F06CF8034687F82F3097F82F30002BE0
:100B80001BD1134801F0BCF8034687F82F3097F8C3
:100B90002F30002B11D1192000F03CFA7B680F2B6D
:100BA00008D800227968192000F018FA0A4A7B68F0
:100BB000136002E0012387F82F3097F82F30184692
:100BC0003037BD4680BD00BF0038024083DE1B4386
:100BD0000C010020000001400400002080B400AFA0
:100BE00000BFFDE780B400AF00BFFDE780B400AFF9
:100BF00000BFFDE780B400AF00BFFDE780B400AFE9
:100C000000BFFDE780B400AF00BFBD465DF8047BC8
:100C10007047000080B500AF024801F0D3F800BF74
:100C200080BD00BF0C01002080B586B000AFF86029
:100C3000B9607A6000237B610AE0AFF3008001466F
:100C4000BB685A1CBA60CAB21A707B6901337B61F7
:100C50007A697B689A42F0DB7B6818461837BD4694
:100C600080BD80B586B000AFF860B9607A600023BF
:100C70007B6109E0BB685A1CBA601B781846FFF715
:100C800001FE7B6901337B617A697B689A42F1DB03
:100C90007B6818461837BD4680BD80B483B000AF6E
:100CA00078604FF0FF3318460C37BD465DF8047B83
:100CB000704780B483B000AF786039603B684FF410
:100CC00000525A60002318460C37BD465DF8047B7D
:100CD000704780B483B000AF7860012318460C37AA
:100CE000BD465DF8047B704780B485B000AFF86006
:100CF000B9607A60002318461437BD465DF8047B5E
:100D00007047000080B586B000AF7860144A154B7C
:100D1000D31A7B617B693B61134B1B68002B02D1AB
:100D2000114B124A1A60104B1A687B6813443A69D7
:100D30009A4207D205F09EFA03460C221A604FF041
:100D4000FF3309E0084B1B68FB60074B1A687B68A0
:100D50001344054A1360FB6818461837BD4680BD2A
:100D6000000002200004000054010020F84B002085
:100D700080B400AF064BD3F88830054A43F47003C3
:100D8000C2F8883000BFBD465DF8047B704700BFE5
:100D900000ED00E0DFF834D0FFF7EAFF0C480D4922
:100DA0000D4A002302E0D458C4500433C4188C42C6
:100DB000F9D30A4A0A4C002301E013600432A2422C
:100DC000FBD305F05DFAFFF7F1FB7047000002204E
:100DD000000000206C0000205C6F00086C00002008
:100DE000F84B0020FEE7000080B500AF0E4B1B68FB
:100DF0000D4A43F4007313600B4B1B680A4A43F41B
:100E000080631360084B1B68074A43F480731360C8
:100E1000032000F0D8F80F20FFF76EFEFFF7F8FD73
:100E20000023184680BD00BF003C024080B400AFE4
:100E3000064B1B781A46064B1B681344044A136082
:100E400000BFBD465DF8047B704700BF080000206E
:100E50005801002080B400AF034B1B681846BD4604
:100E60005DF8047B704700BF5801002080B485B056
:100E700000AF78607B6803F00703FB600C4BDB6816
:100E8000BB60BA684FF6FF031340BB60FB681A02F1
:100E9000BB68134343F0BF6343F40033BB60044AB1
:100EA000BB68D36000BF1437BD465DF8047B704754
:100EB00000ED00E080B400AF044BDB681B0A03F0D8
:100EC00007031846BD465DF8047B704700ED00E05F
:100ED00080B483B000AF0346FB7197F90730002B55
:100EE0000BDBFB7903F01F02074997F907305B0919
:100EF000012000FA02F241F8232000BF0C37BD4662
:100F00005DF8047B704700BF00E100E080B483B06F
:100F100000AF03463960FB7197F90730002B0ADBFD
:100F20003B68DAB20C4997F907301201D2B20B4490
:100F300083F800230AE03B68DAB20849FB7903F042
:100F40000F03043B1201D2B20B441A7600BF0C37D8
:100F5000BD465DF8047B704700E100E000ED00E075
:100F600080B489B000AFF860B9607A60FB6803F0C4
:100F70000703FB61FB69C3F10703042B28BF0423AC
:100F8000BB61FB690433062B02D9FB69033B00E01C
:100F900000237B614FF0FF32BB6902FA03F3DA43AF
:100FA000BB681A407B699A404FF0FF317B6901FAB8
:100FB00003F3D9437B680B40134318462437BD46DF
:100FC0005DF8047B704780B582B000AF78607868C8
:100FD000FFF74CFF00BF0837BD4680BD80B586B027
:100FE00000AF0346B9607A60FB7300237B61FFF7B3
:100FF00061FF78617A68B9687869FFF7B1FF0246E6
:1010000097F90F3011461846FFF780FF00BF1837D9
:10101000BD4680BD80B582B000AF0346FB7197F935
:1010200007301846FFF754FF00BF0837BD4680BDA4
:1010300080B489B000AF7860396000237B61002301
:101040003B610023BB610023FB6159E10122FB6985
:1010500002FA03F37B613B681B687A6913403B61CA
:101060003A697B699A4240F048813B685B6803F0CB
:101070000303012B05D03B685B6803F00303022BDD
:1010800030D17B689B68BB61FB695B00032202FA7D
:1010900003F3DB43BA691340BB613B68DA68FB6961
:1010A0005B0002FA03F3BA691343BB617B68BA6958
:1010B0009A607B685B68BB610122FB6902FA03F3FB
:1010C000DB43BA691340BB613B685B681B0903F0F3
:1010D0000102FB6902FA03F3BA691343BB617B683F
:1010E000BA695A603B685B6803F00303032B17D0AF
:1010F0007B68DB68BB61FB695B00032202FA03F3D8
:10110000DB43BA691340BB613B689A68FB695B00CB
:1011100002FA03F3BA691343BB617B68BA69DA6008
:101120003B685B6803F00303022B23D1FB69DA08F9
:101130007B68083253F82230BB61FB6903F0070378
:101140009B000F2202FA03F3DB43BA691340BB6131
:101150003B681A69FB6903F007039B0002FA03F37B
:10116000BA691343BB61FB69DA087B680832B96965
:1011700043F822107B681B68BB61FB695B0003229C
:1011800002FA03F3DB43BA691340BB613B685B6857
:1011900003F00302FB695B0002FA03F3BA6913432D
:1011A000BB617B68BA691A603B685B6803F44033D3
:1011B000002B00F0A2800023FB60574B5B6C564A6B
:1011C00043F480435364544B5B6C03F48043FB60F3
:1011D000FB68524AFB699B08023352F82330BB611B
:1011E000FB6903F003039B000F2202FA03F3DB43C6
:1011F000BA691340BB617B68494A934219D07B6846
:10120000484A934213D07B68474A93420DD07B688B
:10121000464A934207D07B68454A934201D1042352
:1012200008E0072306E0032304E0022302E0012391
:1012300000E00023FA6902F0030292009340BA69C9
:101240001343BB613549FB699B080233BA6941F816
:101250002320384B9B68BB613B69DB43BA69134071
:10126000BB613B685B6803F48013002B03D0BA6951
:101270003B691343BB612F4ABB6993602D4BDB680D
:10128000BB613B69DB43BA691340BB613B685B6888
:1012900003F40013002B03D0BA693B691343BB610D
:1012A000244ABB69D360234B5B68BB613B69DB436A
:1012B000BA691340BB613B685B6803F40033002BE1
:1012C00003D0BA693B691343BB611A4ABB695360D7
:1012D000184B1B68BB613B69DB43BA691340BB61B8
:1012E0003B685B6803F48033002B03D0BA693B6929
:1012F0001343BB610F4ABB691360FB690133FB6198
:10130000FB690F2B7FF6A2AE00BF00BF2437BD469E
:101310005DF8047B704700BF003802400038014090
:10132000000002400004024000080240000C02409D
:1013300000100240003C014080B586B000AF7860EC
:101340007B68002B01D1012367E27B681B6803F0F7
:101350000103002B75D0884B9B6803F00C03042B12
:101360000CD0854B9B6803F00C03082B12D1824BE9
:101370005B6803F48003B3F5800F0BD17E4B1B68D1
:1013800003F40033002B5BD07B685B68002B57D1E4
:10139000012342E27B685B68B3F5803F06D1764B60
:1013A0001B68754A43F4803313601DE07B685B68FB
:1013B000B3F5A02F0CD1704B1B686F4A43F4802308
:1013C00013606D4B1B686C4A43F4803313600BE071
:1013D000694B1B68684A23F480331360664B1B68B3
:1013E000654A23F4802313607B685B68002B13D06D
:1013F000FFF730FD386108E0FFF72CFD02463B693E
:10140000D31A642B01D9032307E25B4B1B6803F457
:101410000033002BF0D014E0FFF71CFD386108E02A
:10142000FFF718FD02463B69D31A642B01D9032349
:10143000F3E1514B1B6803F40033002BF0D100E0C3
:1014400000BF7B681B6803F00203002B63D04A4B8C
:101450009B6803F00C03002B0BD0474B9B6803F0F9
:101460000C03082B1CD1444B5B6803F48003002B56
:1014700016D1414B1B6803F00203002B05D07B689B
:10148000DB68012B01D00123C7E13B4B1B6823F034
:10149000F8027B681B69DB00374913430B603AE0B5
:1014A0007B68DB68002B20D0344B01221A60FFF7E9
:1014B000D1FC386108E0FFF7CDFC02463B69D31A46
:1014C000022B01D90323A8E12B4B1B6803F0020375
:1014D000002BF0D0284B1B6823F0F8027B681B69B7
:1014E000DB00254913430B6015E0244B00221A60F2
:1014F000FFF7B0FC386108E0FFF7ACFC02463B693F
:10150000D31A022B01D9032387E11B4B1B6803F07D
:101510000203002BF0D17B681B6803F00803002B4B
:1015200036D07B685B69002B16D0154B01221A6000
:10153000FFF790FC386108E0FFF78CFC02463B693E
:10154000D31A022B01D9032367E10B4B5B6F03F026
:101550000203002BF0D01BE0094B00221A60FFF7BA
:1015600079FC38610EE0FFF775FC02463B69D31A3F
:10157000022B07D9032350E1003802400000474204
:10158000800E4742884B5B6F03F00203002BEAD1C9
:101590007B681B6803F00403002B00F09780002396
:1015A000FB75814B1B6C03F08053002B0FD1002384
:1015B000BB607D4B1B6C7C4A43F0805313647A4BB9
:1015C0001B6C03F08053BB60BB680123FB75774B3A
:1015D0001B6803F48073002B18D1744B1B68734A8B
:1015E00043F480731360FFF735FC386108E0FFF7C0
:1015F00031FC02463B69D31A022B01D903230CE1CB
:101600006A4B1B6803F48073002BF0D07B689B68E7
:10161000012B06D1644B1B6F634A43F00103136730
:101620001CE07B689B68052B0CD15F4B1B6F5E4AEF
:1016300043F0040313675C4B1B6F5B4A43F00103E9
:1016400013670BE0584B1B6F574A23F001031367D6
:10165000554B1B6F544A23F0040313677B689B6848
:10166000002B15D0FFF7F6FB38610AE0FFF7F2FB1D
:1016700002463B69D31A41F28832934201D90323CF
:10168000CBE0494B1B6F03F00203002BEED014E0BC
:10169000FFF7E0FB38610AE0FFF7DCFB02463B693D
:1016A000D31A41F28832934201D90323B5E03E4B6D
:1016B0001B6F03F00203002BEED1FB7D012B05D144
:1016C000394B1B6C384A23F0805313647B689B6949
:1016D000002B00F0A180344B9B6803F00C03082B17
:1016E0005CD07B689B69022B41D1314B00221A6090
:1016F000FFF7B0FB386108E0FFF7ACFB02463B693F
:10170000D31A022B01D9032387E0274B1B6803F070
:101710000073002BF0D17B68DA697B681B6A1A437F
:101720007B685B6A9B011A437B689B6A5B08013B91
:101730001B041A437B68DB6A1B061B4913434B607F
:101740001B4B01221A60FFF785FB386108E0FFF7A9
:1017500081FB02463B69D31A022B01D903235CE0CB
:10176000114B1B6803F00073002BF0D054E0104BBA
:1017700000221A60FFF76EFB386108E0FFF76AFB92
:1017800002463B69D31A022B01D9032345E0064BDD
:101790001B6803F00073002BF0D13DE07B689B6970
:1017A000012B07D1012338E00038024000700040CF
:1017B000600047421B4B5B68FB607B689B69012BA9
:1017C00028D0FB6803F480027B68DB699A4221D150
:1017D000FB6803F03F027B681B6A9A421AD1FA68E1
:1017E00047F6C07313407A68526A9201934211D14E
:1017F000FB6803F440327B689B6A5B08013B1B0477
:101800009A4207D1FB6803F070627B68DB6A1B06B3
:101810009A4201D0012300E0002318461837BD4644
:1018200080BD00BF0038024080B584B000AF786052
:1018300039607B68002B01D10123CCE0684B1B6829
:1018400003F007033A689A420CD9654B3A68D2B262
:101850001A70634B1B6803F007033A689A4201D081
:101860000123B8E07B681B6803F00203002B20D043
:101870007B681B6803F00403002B05D0594B9B6861
:10188000584A43F4E05393607B681B6803F00803F5
:10189000002B05D0534B9B68524A43F4604393603E
:1018A000504B9B6823F0F0027B689B684D491343C3
:1018B0008B607B681B6803F00103002B44D07B68BE
:1018C0005B68012B07D1474B1B6803F40033002BE7
:1018D00019D101237FE07B685B68022B03D07B6812
:1018E0005B68032B07D13F4B1B6803F00073002B91
:1018F00009D101236FE03B4B1B6803F00203002B6F
:1019000001D1012367E0374B9B6823F003027B681A
:101910005B68344913438B60FFF79CFAF8600AE078
:10192000FFF798FA0246FB68D31A41F288329342D5
:1019300001D903234FE02B4B9B6803F00C027B681B
:101940005B689B009A42EBD1254B1B6803F00703B1
:101950003A689A420CD2224B3A68D2B21A70204BA3
:101960001B6803F007033A689A4201D0012332E072
:101970007B681B6803F00403002B08D0194B9B689D
:1019800023F4E0527B68DB68164913438B607B6865
:101990001B6803F00803002B09D0124B9B6823F44B
:1019A00060427B681B69DB000E4913438B6000F0CB
:1019B00021F802460B4B9B681B0903F00F030A49F1
:1019C000CB5C22FA03F3094A1360094B1B681846E3
:1019D000FFF792F8002318461037BD4680BD00BFC0
:1019E000003C024000380240006F00080000002068
:1019F000040000202DE9B04F90B000AF00237B63BE
:101A00000023FB6300233B630023BB63594B9B68AC
:101A100003F00C03082B0DD0082B00F2A180002B43
:101A200002D0042B03D09BE0534BBB639BE0534B92
:101A3000BB6398E04F4B5B6803F03F037B634D4B08
:101A40005B6803F48003002B28D04A4B5B689B093A
:101A500000223B627A623B6AC3F308000021474BD5
:101A600003FB01F2002300FB03F31344434AA0FBF2
:101A70000212FA620A46BA62FA6A1344FB627B6B8C
:101A80000022BB61FA61D7E90623D7E90A01FEF714
:101A9000F7FB02460B461346FB6353E0354B5B688E
:101AA0009B0900223B617A613B69C3F3080A4FF04E
:101AB000000B52465B464FF000004FF00001590109
:101AC00041EAD261500102460B46B2EB0A0863EBD1
:101AD0000B094FF000024FF000034FEA891343EA6D
:101AE00098634FEA8812B2EB080463EB09054FF0E4
:101AF00000024FF00003EB0043EA5473E200144687
:101B00001D4614EB0A033B6045EB0B037B604FF073
:101B100000024FF00003D7E9004529468B02214619
:101B200043EA915321468A02104619467B6B0022F4
:101B3000BB60FA60D7E90223FEF7A2FB02460B4620
:101B40001346FB630B4B5B681B0C03F00303013371
:101B50005B003B63FA6B3B6BB2FBF3F3BB6302E0EE
:101B6000054BBB6300BFBB6B18464037BD46BDE8A5
:101B7000B08F00BF003802400024F40040787D019F
:101B800080B400AF034B1B681846BD465DF8047B6C
:101B9000704700BF0000002080B500AFFFF7F0FFE6
:101BA0000246054B9B689B0A03F007030349CB5C85
:101BB00022FA03F3184680BD00380240106F000877
:101BC00080B500AFFFF7DCFF0246054B9B685B0B5F
:101BD00003F007030349CB5C22FA03F3184680BDE8
:101BE00000380240106F000880B483B000AF786006
:101BF00039607B680F221A60124B9B6803F0030266
:101C00007B685A600F4B9B6803F0F0027B689A6018
:101C10000C4B9B6803F4E0527B68DA60094B9B68CD
:101C2000DB0803F4E0527B681A61074B1B6803F082
:101C300007023B681A6000BF0C37BD465DF8047BA5
:101C4000704700BF00380240003C024080B582B0BF
:101C500000AF78607B68002B01D1012341E07B68F5
:101C600093F83D30DBB2002B06D17B68002283F86D
:101C70003C20786800F039F87B68022283F83D2028
:101C80007B681A687B6804331946104600F0B2F985
:101C90007B68012283F846207B68012283F83E207E
:101CA0007B68012283F83F207B68012283F8402073
:101CB0007B68012283F841207B68012283F842205F
:101CC0007B68012283F843207B68012283F844204B
:101CD0007B68012283F845207B68012283F83D2040
:101CE000002318460837BD4680BD80B483B000AFDE
:101CF000786000BF0C37BD465DF8047B704700007C
:101D000080B485B000AF78607B6893F83D30DBB27B
:101D1000012B01D0012344E07B68022283F83D209F
:101D20007B681B68DA687B681B6842F00102DA6036
:101D30007B681B681E4A934218D07B681B68B3F10E
:101D4000804F13D07B681B681A4A93420ED07B6881
:101D50001B68194A934209D07B681B68174A934253
:101D600004D07B681B68164A934211D17B681B68BC
:101D70009B6803F00703FB60FB68062B10D07B68B1
:101D80001B681A687B681B6842F001021A6007E052
:101D90007B681B681A687B681B6842F001021A6046
:101DA000002318461437BD465DF8047B704700BF1A
:101DB000000001400004004000080040000C00400A
:101DC0000040014080B584B000AF78607B681B683C
:101DD000DB68FB607B681B681B69BB60BB6803F04A
:101DE0000203002B20D0FB6803F00203002B1BD062
:101DF0007B681B686FF002021A617B6801221A7708
:101E00007B681B689B6903F00303002B03D0786891
:101E100000F0D2F805E0786800F0C4F8786800F0C7
:101E2000D5F87B6800221A77BB6803F00403002B07
:101E300020D0FB6803F00403002B1BD07B681B68D9
:101E40006FF004021A617B6802221A777B681B68B4
:101E50009B6903F44073002B03D0786800F0ACF862
:101E600005E0786800F09EF8786800F0AFF87B68CD
:101E700000221A77BB6803F00803002B20D0FB6810
:101E800003F00803002B1BD07B681B686FF008026F
:101E90001A617B6804221A777B681B68DB6903F090
:101EA0000303002B03D0786800F086F805E078681B
:101EB00000F078F8786800F089F87B6800221A77DB
:101EC000BB6803F01003002B20D0FB6803F0100365
:101ED000002B1BD07B681B686FF010021A617B68B7
:101EE00008221A777B681B68DB6903F44073002BB8
:101EF00003D0786800F060F805E0786800F052F8E8
:101F0000786800F063F87B6800221A77BB6803F0FA
:101F10000103002B0CD0FB6803F00103002B07D05A
:101F20007B681B686FF001021A617868FEF758FD44
:101F3000BB6803F08003002B0CD0FB6803F0800328
:101F4000002B07D07B681B686FF080021A617868ED
:101F500000F0E0F8BB6803F04003002B0CD0FB68F6
:101F600003F04003002B07D07B681B686FF0400232
:101F70001A61786800F034F8BB6803F02003002B86
:101F80000CD0FB6803F02003002B07D07B681B6894
:101F90006FF020021A61786800F0B2F800BF1037C5
:101FA000BD4680BD80B483B000AF786000BF0C3701
:101FB000BD465DF8047B704780B483B000AF7860A5
:101FC00000BF0C37BD465DF8047B704780B483B01A
:101FD00000AF786000BF0C37BD465DF8047B7047EA
:101FE00080B483B000AF786000BF0C37BD465DF8A9
:101FF000047B704780B485B000AF786039607B683F
:102000001B68FB607B68374A93420FD07B68B3F153
:10201000804F0BD07B68344A934207D07B68334AA9
:10202000934203D07B68324A934208D1FB6823F085
:102030007003FB603B685B68FA681343FB607B6876
:10204000284A93421BD07B68B3F1804F17D07B683E
:10205000254A934213D07B68244A93420FD07B6871
:10206000234A93420BD07B68224A934207D07B6875
:10207000214A934203D07B68204A934208D1FB68EF
:1020800023F44073FB603B68DB68FA681343FB6032
:10209000FB6823F080023B685B691343FB603B688D
:1020A0009A687B68DA623B681A687B689A627B6828
:1020B0000C4A934203D13B681A697B681A637B68B8
:1020C0001B6843F004027B681A607B6801225A6136
:1020D0007B68FA681A6000BF1437BD465DF8047B60
:1020E000704700BF000001400004004000080040AD
:1020F000000C004000400140004401400048014005
:1021000080B483B000AF786000BF0C37BD465DF887
:10211000047B704780B483B000AF786000BF0C3799
:10212000BD465DF8047B704780B582B000AF786033
:102130007B68002B01D1012342E07B6893F841309A
:10214000DBB2002B06D17B68002283F84020786840
:10215000FEF78AFC7B68242283F841207B681B6899
:10216000DA687B681B6822F40052DA60786800F055
:102170002BF87B681B681A697B681B6822F4904205
:102180001A617B681B685A697B681B6822F02A0207
:102190005A617B681B68DA687B681B6842F40052EE
:1021A000DA607B6800225A647B68202283F8412031
:1021B0007B68202283F842207B6800225A63002338
:1021C00018460837BD4680BD2DE9B04FC0B000AFFE
:1021D000C7F8F400D7F8F4301B681B6923F44050AB
:1021E000D7F8F430D968D7F8F4301A6840EA010318
:1021F0001361D7F8F4309A68D7F8F4301B691A43A2
:10220000D7F8F4305B691A43D7F8F430DB6913432D
:10221000C7F8F830D7F8F4301B68DB6823F41641B0
:1022200021F00C01D7F8F4301A68D7F8F8300B43D6
:10223000D360D7F8F4301B685B6923F44070D7F89B
:10224000F4309969D7F8F4301A6840EA0103536111
:10225000D7F8F4301A688F4B9A4205D0D7F8F4308B
:102260001A688D4B9A4204D1FFF7AAFCC7F8FC000C
:1022700003E0FFF791FCC7F8FC00D7F8F430DB6906
:10228000B3F5004F40F00C81D7F8FC300022C7F8BE
:10229000E830C7F8EC20D7E93A4522462B4691189A
:1022A000B9655B41FB65D7E91623214612EB0108AE
:1022B000294643EB01094FF000024FF000034FEABB
:1022C000C90343EA58734FEAC80290469946234629
:1022D00018EB0303C7F8E0302B4649EB0303C7F8BC
:1022E000E430D7F8F4305B680022C7F8D830C7F87C
:1022F000DC20D7E936120B46DB183B65134642EB70
:1023000003037B65D7E91423D7E93801FDF7B8FF4C
:1023100002460B46614BA3FB02235B091C01D7F865
:10232000FC300022C7F8D030C7F8D420D7E9348970
:1023300042464B469118B9645B41FB64D7E91223CE
:10234000414612EB010A494643EB010B4FF00002F4
:102350004FF000034FEACB0343EA5A734FEACA0235
:1023600092469B4643461AEB0303C7F8C8304B46D8
:102370004BEB0303C7F8CC30D7F8F4305B6800228E
:10238000C7F8C030C7F8C420D7E930120B46DB18B5
:102390003B64134642EB03037B64D7E91023D7E980
:1023A0003201FDF76DFF02460B4611463B4BA3FB86
:1023B00001235B09642202FB03F3CB1ADB0003F168
:1023C0003202364BA3FB02235B095B0003F4F87374
:1023D0001C44D7F8FC300022C7F8B830C7F8BC203E
:1023E000D7E92E8942464B469118B9635B41FB639E
:1023F000D7E90E2341465118396349464B417B6367
:102400004FF000024FF00003D7E90CAB5946CB0068
:10241000514643EA51735146CA00104619460346D5
:1024200042469B18C7F8B0304B460A4642EB0303BE
:10243000C7F8B430D7F8F4305B680022C7F8A8308A
:10244000C7F8AC20D7E92A120B46DB18BB6213464B
:1024500042EB0303FB62D7E90A23D7E92C01FDF71E
:102460000FFF02460B460D4BA3FB02135B096421D1
:1024700001FB03F3D31ADB003233084AA2FB032328
:102480005B0903F00702D7F8F4301B6822449A6016
:1024900006E100BF00100140001401401F85EB5110
:1024A000D7F8FC300022C7F8A030C7F8A420D7E93D
:1024B000288942464B46911839625B417B62D7E9D5
:1024C000082341465418494643EB01054FF00002EA
:1024D0004FF00003EB0043EA5473E20014461D463C
:1024E0004346E318C7F898304B4645EB0303C7F85B
:1024F0009C30D7F8F4305B680022C7F89030C7F8FA
:1025000094204FF000024FF00003D7E924452946FC
:102510008B00214643EA917321468A00D7E92601C0
:10252000FDF7AEFE02460B46604BA3FB02235B09A0
:102530001C01D7F8FC300022C7F88830C7F88C207F
:10254000D7E9228942464B469118B9615B41FB614C
:10255000D7E9062341465118396149464B417B6111
:102560004FF000024FF00003D7E904AB5946CB000F
:10257000514643EA51735146CA0010461946034674
:1025800042469B18C7F880304B460A4642EB03038D
:10259000C7F88430D7F8F4305B680022BB67FA676D
:1025A0004FF000024FF00003D7E91E8949468B0027
:1025B000414643EA917341468A00D7E92001FDF77D
:1025C0005FFE02460B461146384BA3FB01235B0915
:1025D000642202FB03F3CB1A1B013233334AA2FB02
:1025E00003235B0903F0F0031C44D7F8FC300022FE
:1025F0003B677A67D7E91C8942464B469118B96018
:102600005B41FB60D7E902234146511839604946D6
:102610004B417B604FF000024FF00003D7E900AB65
:102620005946CB00514643EA51735146CA00104601
:102630001946034642469B18BB664B460A4642EB88
:102640000303FB66D7F8F4305B6800223B667A66CA
:102650004FF000024FF00003D7E9188949468B007C
:10266000414643EA917341468A00D7E91A01FDF7D2
:1026700007FE02460B460D4BA3FB02135B096421C8
:1026800001FB03F3D31A1B013233084AA2FB0323D5
:102690005B0903F00F02D7F8F4301B6822449A60FC
:1026A00000BF07F58077BD46BDE8B08F1F85EB51B1
:1026B00080B483B000AF03463960FB7197F90730EF
:1026C000002B0ADB3B68DAB20C4997F9073012019C
:1026D000D2B20B4483F800230AE03B68DAB208491F
:1026E000FB7903F00F03043B1201D2B20B441A76BC
:1026F00000BF0C37BD465DF8047B704700E100E089
:1027000000ED00E080B500AF054B1B6802F0D6FA83
:102710000346012B01D003F0C7F900BF80BD00BF05
:1027200010E000E080B500AF00216FF00400FFF77B
:10273000BFFF00BF80BD000080B483B000AFEFF3E7
:1027400005833B603B68002B03D06FF005037B6083
:102750000CE00A4B1B68002B05D1084B01221A60C4
:1027600000237B6002E04FF0FF337B607B681846FC
:102770000C37BD465DF8047B704700BF5C0100204C
:1027800080B582B000AFEFF305833B603B68002B60
:1027900003D06FF005037B6010E00B4B1B68012B2F
:1027A00009D1FFF7BFFF084B02221A6001F096FD26
:1027B00000237B6002E04FF0FF337B607B681846AC
:1027C0000837BD4680BD00BF5C01002080B58EB0DB
:1027D00004AFF860B9607A6000233B61EFF30583D2
:1027E0007B617B69002B7ED1FB68002B7BD0802333
:1027F0003B621823FB6100237B624FF0FF33BB6118
:102800007B68002B45D07B681B68002B02D07B685F
:102810001B687B627B689B69002B02D07B689B698D
:10282000FB61FB69002B08D0FB69382B05D87B685E
:102830005B6803F00103002B01D0002354E07B68A8
:102840005B69002B03D07B685B699B083B627B68FC
:102850009B68002B0ED07B68DB685B2B0AD97B68FA
:102860001B69002B06D07B685B69002B02D001231B
:10287000BB6110E07B689B68002B0CD17B68DB6838
:10288000002B08D17B681B69002B04D10023BB619E
:1028900001E00023BB61BB69012B10D17B681B6980
:1028A0007A68926802920193FB690093BB683A6A66
:1028B000796AF86801F036FB03463B6113E0BB69B7
:1028C000002B10D13B6A9AB207F110030193FB6908
:1028D0000093BB68796AF86801F084FB0346012B1A
:1028E00001D000233B613B6918462837BD4680BDB7
:1028F00080B584B000AF7860EFF30583BB60BB6840
:10290000002B03D06FF00503FB6007E00023FB60A2
:102910007B68002B02D0786801F0AAFCFB6818469F
:102920001037BD4680BD80B584B000AF7860786850
:1029300002F0B6FEF860FB68002B05D0FB681B6850
:10294000FA6852681046984700BF1037BD4680BDF0
:1029500080B58CB002AFF8607A603B600B46FB72CA
:1029600000233B62EFF305833B613B69002B63D19E
:10297000FB68002B60D0082003F028F978617B69A0
:10298000002B59D07B69FA681A607B697A685A60B3
:10299000FB7A002B02D10023FB6101E00123FB61E4
:1029A0004FF0FF33BB6100237B623B68002B1CD0E0
:1029B0003B681B68002B02D03B681B687B623B684E
:1029C0009B68002B06D03B68DB682B2B02D90123C8
:1029D000BB610CE03B689B68002B08D13B68DB685F
:1029E000002B04D10023BB6101E00023BB61BB6964
:1029F000012B0CD13B689B680193124B00937B69C0
:102A0000FA690121786A02F0BEFA38620BE0BB690C
:102A1000002B08D10B4B00937B69FA690121786A7E
:102A200002F090FA38623B6A002B05D17B69002BDB
:102A300002D0786903F098F93B6A18462837BD46FA
:102A400080BD00BF2729000880B588B002AF78603C
:102A500039607B683B61EFF30583FB60FB68002B0B
:102A600003D06FF005037B6117E03B69002B03D1B6
:102A70006FF003037B6110E00023009300233A68AA
:102A80000421386902F0FCFA0346012B02D100232D
:102A90007B6102E06FF002037B617B6918461837A7
:102AA000BD4680BD80B586B000AF786000237B61F5
:102AB000EFF30583FB60FB68002B2DD14FF0FF3354
:102AC0003B617B68002B15D07B689B68002B06D090
:102AD0007B68DB681F2B02D901233B610CE07B681C
:102AE0009B68002B08D17B68DB68002B04D1002396
:102AF0003B6101E000233B613B69012B06D17B6810
:102B00009B68184600F0E2F9786105E03B69002B0C
:102B100002D100F014FA78617B6918461837BD4677
:102B200080BD000080B586B000AF786039607B68FA
:102B30003B613B69002B03D03B68B3F1807F03D33B
:102B40006FF003037B6128E0EFF30583FB60FB6814
:102B5000002B1DD00023BB6007F108031A4639681B
:102B6000386900F095FB0346002B03D16FF0020398
:102B70007B6112E03B687B61BB68002B0DD0094B89
:102B80004FF080521A60BFF34F8FBFF36F8F04E096
:102B90003968386900F0C0FA78617B6918461837DF
:102BA000BD4680BD04ED00E080B58CB002AFF8609A
:102BB000B9607A603B60FB68BB61BB69002B03D0E6
:102BC000BB68B3F1807F03D36FF00303FB614BE07D
:102BD000EFF305837B617B69002B03D06FF0050366
:102BE000FB6141E07B6803F00103002B02D001236D
:102BF0007B6201E000237B627B6803F00203002B11
:102C000002D000233B6201E001233B623B6800935A
:102C10007B6A3A6AB968B86900F0ACF9F8617B6818
:102C200003F00103002B10D0BA68FB691340BA68A7
:102C30009A4219D03B68002B03D06FF00103FB616F
:102C400012E06FF00203FB610EE0BA68FB6913400B
:102C5000002B09D13B68002B03D06FF00103FB610F
:102C600002E06FF00203FB61FB6918462837BD469E
:102C700080BD80B588B000AF78600023FB61EFF3C2
:102C80000583BB60BB68002B74D17B68002B03D02D
:102C90007B685B68BB6101E00023BB61BB6903F03B
:102CA0000103002B02D001237B6101E000237B6143
:102CB000BB6903F00803002B5CD14FF0FF333B618D
:102CC0007B68002B15D07B689B68002B06D07B6847
:102CD000DB684F2B02D901233B610CE07B689B68CA
:102CE000002B08D17B68DB68002B04D100233B61FB
:102CF00001E000233B613B69012B12D17B69002B72
:102D000007D07B689B681946042000F000FDF8613D
:102D100016E07B689B681946012000F0F8FCF8611A
:102D20000EE03B69002B0BD17B69002B04D0042003
:102D300000F0D5FCF86103E0012000F0D0FCF86160
:102D4000FB69002B0CD07B68002B03D07B681B68D1
:102D5000FB6001E00023FB60F968F86901F084F88A
:102D6000FB69002B06D07B69002B03D0FB6943F085
:102D70000103FB61FB6918462037BD4680BD80B565
:102D80008AB002AFF860B9607A600023FB61EFF3AC
:102D900005833B613B69002B5FD1FB68002B5CD056
:102DA000BB68002B59D04FF0FF33BB617B68002B11
:102DB00029D07B689B68002B12D07B68DB684F2B87
:102DC0000ED97B681B69002B0AD07B685A69FB68A7
:102DD000B96801FB03F39A4202D30123BB6114E0FB
:102DE0007B689B68002B10D17B68DB68002B0CD1C3
:102DF0007B681B69002B08D17B685B69002B04D1C1
:102E00000023BB6101E00023BB61BB69012B0BD137
:102E10007B681A697B689B6800210091B968F86833
:102E200000F068FBF86108E0BB69002B05D10022C7
:102E3000B968F86800F0DBFBF861FB69002B0CD087
:102E40007B68002B03D07B681B687B6101E000235B
:102E50007B617969F86901F007F8FB69184620374A
:102E6000BD4680BD80B485B000AFF860B9607A60BF
:102E7000FB68074A1A60BB68064A1A607B688022B2
:102E80001A6000BF1437BD465DF8047B704700BF71
:102E900060010020BC01002080B485B000AFF86064
:102EA000B9607A60FB68074A1A60BB68064A1A6014
:102EB0007B684FF480721A6000BF1437BD465DF81E
:102EC000047B7047BC0300201804002080B586B046
:102ED00000AF78607B68002B0BD14FF0500383F379
:102EE0001188BFF36F8FBFF34F8F3B6100BF00BFEF
:102EF000FDE72023BB60BB68202B0BD04FF05003B5
:102F000083F31188BFF36F8FBFF34F8FFB6000BF58
:102F100000BFFDE77B687B617B69002B0AD07B6982
:102F200000221A607B690433184600F0C5F97B69FA
:102F300001221A777B6918461837BD4680BD80B5D7
:102F400082B000AF202002F041FE78607B68002B49
:102F50000AD07B6800221A607B680433184600F0B0
:102F6000ABF97B6800221A777B6818460837BD46A4
:102F700080BD000080B590B000AFF860B9607A60A5
:102F80003B60FB687B630023BB6300233B63FB6800
:102F9000002B0BD14FF0500383F31188BFF36F8FD9
:102FA000BFF34F8F3B6200BF00BFFDE7BB68B3F1CB
:102FB000807F0BD34FF0500383F31188BFF36F8FE3
:102FC000BFF34F8FFB6100BF00BFFDE7BB68002B65
:102FD0000BD14FF0500383F31188BFF36F8FBFF312
:102FE0004F8FBB6100BF00BFFDE701F067FE0346E6
:102FF000002B02D1BB6C002B01D1012300E0002388
:10300000002B0BD14FF0500383F31188BFF36F8F68
:10301000BFF34F8F7B6100BF00BFFDE701F0C6F932
:103020007B6B1B68FB623A68B968F86A00F00DF9BF
:10303000B862BB6A002B0ED0FB6AFB630023BB6443
:103040007B68002B28D07B6B1A68BB68DB431A4077
:103050007B6B1A6020E0BB6C002B04D1FB6AFB6326
:1030600001233B6318E07B68002B03D0BB6B43F06C
:103070008073BB633B68002B03D0BB6B43F0806362
:10308000BB637B6B181DBA68BB6B1343BA6C1946E4
:1030900001F086FB0023FB6301F096F97862BB6CBC
:1030A000002B31D07B6A002B07D11A4B4FF0805296
:1030B0001A60BFF34F8FBFF36F8F01F08DFEF8637F
:1030C000FB6B03F00073002B1AD102F05DFC7B6BED
:1030D0001B68FB633A68B968F86B00F0B6F8034602
:1030E000002B09D07B68002B06D07B6B1A68BB686D
:1030F000DB431A407B6B1A6001233B6302F076FCD2
:10310000FB6B23F07F43FB63FB6B18464037BD46E8
:1031100080BD00BF04ED00E080B58EB000AF7860E8
:10312000396000233B637B68BB620023FB627B68E2
:10313000002B0BD14FF0500383F31188BFF36F8F37
:10314000BFF34F8F3B6100BF00BFFDE73B68B3F1AA
:10315000807F0BD34FF0500383F31188BFF36F8F41
:10316000BFF34F8FFB6000BF00BFFDE7BB6A0433B6
:103170007B627B6A08333B6201F018F97B6ADB688B
:103180007B63BB6A1A683B681A43BB6A1A603CE0FF
:103190007B6B5B68FB617B6B1B68BB610023FB6225
:1031A000BB6903F07F437B61BB6923F07F43BB6155
:1031B0007B6903F08063002B08D1BB6A1A68BB6986
:1031C0001340002B0BD00123FB6208E0BB6A1A6896
:1031D000BB691340BA699A4201D10123FB62FB6AC1
:1031E000002B10D07B6903F08073002B03D03A6B67
:1031F000BB6913433B63BB6A1B6843F0007319460A
:10320000786B01F09BFBFB697B637A6B3B6A9A42AC
:10321000BED1BB6A1A683B6BDB431A40BB6A1A60BB
:1032200001F0D2F8BB6A1B6818463837BD4680BD2E
:1032300080B582B000AF7860396039687868FFF790
:103240006BFF00BF0837BD4680BD80B487B000AFBC
:10325000F860B9607A6000237B617B68002B07D13E
:10326000FA68BB681340002B0AD001237B6107E09A
:10327000FA68BB681340BA689A4201D101237B61A6
:103280007B6918461C37BD465DF8047B704700001B
:1032900080B586B000AFF860B9607A607B68BA68C4
:1032A000F968044802F01EFA78617B6918461837FD
:1032B000BD4680BD3132000880B483B000AF786075
:1032C0007B6803F108027B685A607B684FF0FF322D
:1032D0009A607B6803F108027B68DA607B6803F11F
:1032E00008027B681A617B6800221A6000BF0C37F5
:1032F000BD465DF8047B704780B483B000AF786052
:103300007B6800221A6100BF0C37BD465DF8047B64
:10331000704780B485B000AF786039607B685B68C7
:10332000FB603B68FA685A60FB689A683B689A6081
:10333000FB689B683A685A60FB683A689A603B6829
:103340007A681A617B681B685A1C7B681A6000BF28
:103350001437BD465DF8047B704780B485B000AF7C
:10336000786039603B681B68BB60BB68B3F1FF3FA6
:1033700003D17B681B69FB600CE07B680833FB6052
:1033800002E0FB685B68FB60FB685B681B68BA680F
:103390009A42F6D2FB685A683B685A603B685B68A1
:1033A0003A689A603B68FA689A60FB683A685A60C3
:1033B0003B687A681A617B681B685A1C7B681A60D4
:1033C00000BF1437BD465DF8047B704780B485B0FC
:1033D00000AF78607B681B69FB607B685B687A681C
:1033E00092689A607B689B687A6852685A60FB684A
:1033F0005B687A689A4203D17B689A68FB685A6076
:103400007B6800221A61FB681B685A1EFB681A6001
:10341000FB681B6818461437BD465DF8047B70478F
:1034200080B584B000AF786039607B68FB60FB6872
:10343000002B0BD14FF0500383F31188BFF36F8F34
:10344000BFF34F8FBB6000BF00BFFDE702F09CFAE7
:10345000FB681A68FB68DB6BF968096C01FB03F316
:103460001A44FB689A60FB6800229A63FB681A683A
:10347000FB685A60FB681A68FB68DB6B013BF96804
:10348000096C01FB03F31A44FB68DA60FB68FF2256
:1034900083F84420FB68FF2283F845203B68002B1B
:1034A00014D1FB681B69002B1AD0FB681033184637
:1034B00001F0E0F90346002B12D00D4B4FF0805283
:1034C0001A60BFF34F8FBFF36F8F09E0FB681033B3
:1034D0001846FFF7F1FEFB6824331846FFF7ECFEB1
:1034E00002F084FA012318461037BD4680BD00BFA4
:1034F00004ED00E080B58EB002AFF860B9607A608C
:103500003B60FB68002B0BD14FF0500383F3118815
:10351000BFF36F8FBFF34F8FBB6200BF00BFFDE7EC
:103520003B68002B0BD14FF0500383F31188BFF39E
:103530006F8FBFF34F8F7B6200BF00BFFDE77B68DB
:10354000002B02D0BB68002B01D0012300E0002338
:10355000002B0BD14FF0500383F31188BFF36F8F13
:10356000BFF34F8F3B6200BF00BFFDE77B68002BBE
:1035700002D1BB68002B01D1012300E00023002B06
:103580000BD14FF0500383F31188BFF36F8FBFF35C
:103590004F8FFB6100BF00BFFDE750237B617B695C
:1035A000502B0BD04FF0500383F31188BFF36F8F74
:1035B000BFF34F8FBB6100BF00BFFDE77B693B6876
:1035C000FB62FB6A002B0DD0FB6A012283F84620C8
:1035D00097F83820FB6A009313467A68B968F86850
:1035E00000F040F8FB6A18463037BD4680BD80B514
:1035F0008AB002AFF860B9601346FB71FB68002B1C
:103600000BD14FF0500383F31188BFF36F8FBFF3DB
:103610004F8F3B6100BF00BFFDE7FB68BA6802FB4C
:1036200003F3FB61FB695033184602F0CFFAB8612F
:10363000BB69002B11D0BB697B617B6950337B6117
:10364000BB69002283F84620FA79BB6900931346D0
:103650007A69B968F86800F005F8BB691846203740
:10366000BD4680BD80B584B000AFF860B9607A60B7
:10367000FB70BB68002B03D1BB69BA691A6002E01A
:10368000BB697A681A60BB69FA68DA63BB69BA68B1
:103690001A640121B869FFF7C3FEBB69FA7883F8A1
:1036A0004C2000BF1037BD4680BD80B582B000AF52
:1036B00078607B68002B0ED07B6800229A607B6864
:1036C00000221A607B680022DA60002300220021B9
:1036D000786800F037F800BF0837BD4680BD80B578
:1036E00086B000AF0346FB7101237B6100233B6181
:1036F000FB791A4639697869FFF779FFF860F8684D
:10370000FFF7D3FFFB6818461837BD4680BD80B56C
:1037100088B002AF03463960FB7101237B6100234F
:103720003B61FB7900933B68002239697869FFF7B8
:10373000E1FEF860F868FFF7B8FFFB681846183735
:10374000BD4680BD80B58EB000AFF860B9607A60CC
:103750003B6000237B63FB683B633B6B002B0BD11F
:103760004FF0500383F31188BFF36F8FBFF34F8F78
:10377000BB6200BF00BFFDE7BB68002B03D13B6B02
:103780001B6C002B01D1012300E00023002B0BD187
:103790004FF0500383F31188BFF36F8FBFF34F8F48
:1037A0007B6200BF00BFFDE73B68022B03D13B6B90
:1037B000DB6B012B01D1012300E00023002B0BD197
:1037C0004FF0500383F31188BFF36F8FBFF34F8F18
:1037D0003B6200BF00BFFDE701F070FA0346002B1B
:1037E00002D17B68002B01D1012300E00023002BD4
:1037F0000BD14FF0500383F31188BFF36F8FBFF3EA
:103800004F8FFB6100BF00BFFDE702F0BDF83B6BCF
:103810009A6B3B6BDB6B9A4202D33B68022B29D13C
:103820003A68B968386B00F00FFAF8623B6B5B6A74
:10383000002B10D03B6B2433184601F01BF80346D5
:10384000002B13D03F4B4FF080521A60BFF34F8FC5
:10385000BFF36F8F0AE0FB6A002B07D0394B4FF0A4
:1038600080521A60BFF34F8FBFF36F8F02F0BEF824
:10387000012363E07B68002B03D102F0B7F800233B
:103880005CE07B6B002B06D107F11403184601F0B6
:10389000B9F801237B6302F0A9F800F087FD02F07C
:1038A00073F83B6B93F844305BB2B3F1FF3F03D145
:1038B0003B6B002283F844203B6B93F845305BB2AE
:1038C000B3F1FF3F03D13B6B002283F8452002F0A8
:1038D0008DF83A1D07F114031146184601F0A8F8B7
:1038E0000346002B24D1386B00F0A6FA0346002BC8
:1038F00018D03B6B10337A681146184600F02AFF47
:10390000386B00F031FA00F05FFD0346002B7FF4C6
:103910007CAF0C4B4FF080521A60BFF34F8FBFF358
:103920006F8F72E7386B00F01FFA00F04DFD6CE707
:10393000386B00F019FA00F047FD002318463837BD
:10394000BD4680BD04ED00E080B590B000AFF860EA
:10395000B9607A603B60FB68BB63BB6B002B0BD12B
:103960004FF0500383F31188BFF36F8FBFF34F8F76
:10397000BB6200BF00BFFDE7BB68002B03D1BB6B80
:103980001B6C002B01D1012300E00023002B0BD185
:103990004FF0500383F31188BFF36F8FBFF34F8F46
:1039A0007B6200BF00BFFDE73B68022B03D1BB6B0E
:1039B000DB6B012B01D1012300E00023002B0BD195
:1039C0004FF0500383F31188BFF36F8FBFF34F8F16
:1039D0003B6200BF00BFFDE702F0B6F8EFF31182D3
:1039E0004FF0500383F31188BFF36F8FBFF34F8FF6
:1039F000FA61BB61FB697B63BB6B9A6BBB6BDB6B77
:103A00009A4202D33B68022B2FD1BB6B93F845300F
:103A100087F83330BB6B9B6BFB623A68B968B86B55
:103A200000F012F997F93330B3F1FF3F12D1BB6BBD
:103A30005B6A002B16D0BB6B2433184600F01AFFCC
:103A40000346002B0ED07B68002B0BD07B68012235
:103A50001A6007E097F833300133DBB25AB2BB6B20
:103A600083F845200123FB6301E00023FB637B6BAC
:103A70007B617B6983F3118800BFFB6B184640377D
:103A8000BD4680BD80B58CB000AFF860B9607A608B
:103A90000023FB62FB68BB62BB6A002B0BD14FF0BB
:103AA000500383F31188BFF36F8FBFF34F8F3B62D7
:103AB00000BF00BFFDE7BB68002B03D1BB6A1B6CD6
:103AC000002B01D1012300E00023002B0BD14FF08C
:103AD000500383F31188BFF36F8FBFF34F8FFB61E8
:103AE00000BF00BFFDE701F0E9F80346002B02D15B
:103AF0007B68002B01D1012300E00023002B0BD1B8
:103B00004FF0500383F31188BFF36F8FBFF34F8FD4
:103B1000BB6100BF00BFFDE701F036FFBB6A9B6BD6
:103B20007B627B6A002B1FD0B968B86A00F0F6F898
:103B30007B6A5A1EBB6A9A63BB6A1B69002B0FD053
:103B4000BB6A1033184600F095FE0346002B07D0E1
:103B50003C4B4FF080521A60BFF34F8FBFF36F8F13
:103B600001F044FF012369E07B68002B03D101F0E1
:103B70003DFF002362E0FB6A002B06D107F1100332
:103B8000184600F03FFF0123FB6201F02FFF00F019
:103B90000DFC01F0F9FEBB6A93F844305BB2B3F15F
:103BA000FF3F03D1BB6A002283F84420BB6A93F82D
:103BB00045305BB2B3F1FF3F03D1BB6A002283F80B
:103BC000452001F013FF3A1D07F110031146184676
:103BD00000F02EFF0346002B23D1B86A00F016F93F
:103BE0000346002B17D0BB6A24337A681146184667
:103BF00000F0B0FDB86A00F0B7F800F0E5FB03464E
:103C0000002B89D10F4B4FF080521A60BFF34F8FBA
:103C1000BFF36F8F80E7B86A00F0A6F800F0D4FB1E
:103C20007AE7B86A00F0A0F800F0CEFBB86A00F0BE
:103C3000EDF80346002B3FF46FAF002318463037F2
:103C4000BD4680BD04ED00E080B586B000AFF860F1
:103C5000B9607A6000237B61FB689B6B3B61FB680A
:103C60001B6C002B0DD1FB681B68002B4DD1FB6832
:103C70009B68184601F040F87861FB6800229A6062
:103C800043E07B68002B19D1FB685868FB681B6C0C
:103C90001A46B96802F01BFBFB685A68FB681B6C8C
:103CA0001A44FB685A60FB685A68FB689B689A4232
:103CB0002BD3FB681A68FB685A6026E0FB68D8685B
:103CC000FB681B6C1A46B96802F001FBFB68DA68F6
:103CD000FB681B6C5B421A44FB68DA60FB68DA68BD
:103CE000FB681B689A4207D2FB689A68FB681B6CEA
:103CF0005B421A44FB68DA607B68022B05D13B69A2
:103D0000002B02D03B69013B3B613B695A1CFB68BD
:103D10009A637B6918461837BD4680BD80B582B06E
:103D200000AF786039607B681B6C002B18D07B6813
:103D3000DA687B681B6C1A447B68DA607B68DA6837
:103D40007B689B689A4203D37B681A687B68DA6059
:103D50007B68D9687B681B6C1A46386802F0B7FA32
:103D600000BF0837BD4680BD80B584B000AF786025
:103D700001F00AFE7B6893F84530FB7311E07B6825
:103D80005B6A002B12D07B682433184600F072FD6A
:103D90000346002B01D000F0AFFEFB7B013BDBB202
:103DA000FB7397F90F30002BE9DC00E000BF7B6864
:103DB000FF2283F8452001F019FE01F0E5FD7B6844
:103DC00093F84430BB7311E07B681B69002B12D061
:103DD0007B681033184600F04DFD0346002B01D0E0
:103DE00000F08AFEBB7B013BDBB2BB7397F90E3060
:103DF000002BE9DC00E000BF7B68FF2283F8442051
:103E000001F0F4FD00BF1037BD4680BD80B584B021
:103E100000AF786001F0B8FD7B689B6B002B02D18E
:103E20000123FB6001E00023FB6001F0DFFDFB6884
:103E300018461037BD4680BD80B584B000AF7860AD
:103E400001F0A2FD7B689A6B7B68DB6B9A4202D122
:103E50000123FB6001E00023FB6001F0C7FDFB686C
:103E600018461037BD4680BD80B485B000AF78607D
:103E700039600023FB6014E00F4AFB6852F83330CE
:103E8000002B0BD10C49FB683A6841F833200A4AF1
:103E9000FB68DB0013447A685A6006E0FB68013374
:103EA000FB60FB68072BE7D900BF00BF1437BD4696
:103EB0005DF8047B704700BF1808002080B586B00D
:103EC00000AFF860B9607A60FB687B6101F05CFD6F
:103ED0007B6993F844305BB2B3F1FF3F03D17B6958
:103EE000002283F844207B6993F845305BB2B3F13C
:103EF000FF3F03D17B69002283F8452001F076FD66
:103F00007B699B6B002B06D17B6924337A68B96887
:103F1000184600F083FC7869FFF726FF00BF1837CA
:103F2000BD4680BD80B58EB004AFF860B9607A60E0
:103F30003B607B6B002B0BD14FF0500383F3118858
:103F4000BFF36F8FBFF34F8F3B6200BF00BFFDE732
:103F5000BB6B002B0BD14FF0500383F31188BFF3E1
:103F60006F8FBFF34F8FFB6100BF00BFFDE75C2386
:103F70003B613B695C2B0BD04FF0500383F31188FE
:103F8000BFF36F8FBFF34F8FBB6100BF00BFFDE773
:103F90003B69BB6B002B1ED07B6B002B1BD0BB6B1C
:103FA0007B627B6A7A6B1A637B6A022283F85920F0
:103FB000002303937B6A029307F1140301933B6B85
:103FC00000933B687A68B968F86800F050F8786A3E
:103FD00000F0DEF801E000237B617B69184628379A
:103FE000BD4680BD80B58CB004AFF860B9603B6061
:103FF0001346FB80FB889B00184601F0E7FD7861C3
:104000007B69002B0ED05C2001F0E0FDF861FB69BC
:10401000002B03D0FB697A691A6305E0786901F027
:10402000A3FE01E00023FB61FB69002B17D0FB69B5
:10403000002283F85920FA8800230393FB69029336
:10404000FB6A0193BB6A00933B68B968F86800F0AB
:104050000EF8F86900F09CF80123BB6102E04FF014
:10406000FF33BB61BB6918462037BD4680BD80B5B4
:1040700088B000AFF860B9607A603B603B6B186B4A
:104080007B689B001A46A52102F0A5F83B6B1A6BD2
:104090007B6803F18043013B9B001344BB61BB6918
:1040A00023F00703BB61BB6903F00703002B0BD0B0
:1040B0004FF0500383F31188BFF36F8FBFF34F8F1F
:1040C0007B6100BF00BFFDE7BB68002B1FD0002352
:1040D000FB6112E0BA68FB69134419783A6BFB691B
:1040E000134434330A461A70BA68FB6913441B78C8
:1040F000002B06D0FB690133FB61FB690F2BE9D96B
:1041000000E000BF3B6B002283F8432003E03B6BE1
:10411000002283F83420BB6A372B01D93723BB62D6
:104120003B6BBA6ADA623B6BBA6ADA643B6B0022B9
:104130001A653B6B04331846FFF7DEF83B6B183308
:104140001846FFF7D9F83B6B3A6B1A61BB6AC3F1AB
:1041500038023B6B9A613B6B3A6B5A623B6B0022B5
:104160005A653B6B002283F858203A68F968B869B1
:1041700001F0D8FA02463B6B1A60FB6A002B02D0B2
:10418000FB6A3A6B1A6000BF2037BD4680BD000055
:1041900080B582B000AF786001F0F6FB2D4B1B6854
:1041A00001332C4A13602C4B1B68002B09D12A4A7F
:1041B0007B681360274B1B68012B10D100F0C0FCFB
:1041C0000DE0264B1B68002B09D1234B1B68DA6AD4
:1041D0007B68DB6A9A4202D81F4A7B681360204BD7
:1041E0001B6801331E4A13601D4B1A687B685A64B2
:1041F0007B68DA6A1B4B1B689A4203D97B68DB6ACF
:10420000184A13607B68DA6A13469B0013449B00CC
:10421000154A1A447B68043319461046FFF779F8AB
:1042200001F0E4FB0D4B1B68002B0ED00A4B1B6802
:10423000DA6A7B68DB6A9A4207D20C4B4FF08052F5
:104240001A60BFF34F8FBFF36F8F00BF0837BD46B3
:1042500080BD00BF2C0D002058080020380D002024
:10426000480D0020340D00205C08002004ED00E023
:1042700080B584B000AF78600023FB607B68002BC2
:1042800018D0144B1B68002B0BD04FF0500383F356
:104290001188BFF36F8FBFF34F8FBB6000BF00BFAC
:1042A000FDE700F083F80021786800F0ADFD00F034
:1042B0008BF8F860FB68002B07D1074B4FF080525A
:1042C0001A60BFF34F8FBFF36F8F00BF1037BD462B
:1042D00080BD00BF540D002004ED00E080B58AB021
:1042E00004AF0023BB6000237B603A46391D07F111
:1042F00008031846FEF7B6FD39687B68BA68029273
:1043000001930023009300230A4622492248FFF725
:1043100009FE0346214A1360204B1B68002B02D084
:1043200001237B6101E000237B617B69012B02D1CA
:1043300000F0BEFD78617B69012B16D14FF0500370
:1043400083F31188BFF36F8FBFF34F8F3B6100BFC3
:10435000134B4FF0FF321A60124B01221A60124BBE
:1043600000221A6001F06CFA0FE07B69B3F1FF3FA5
:104370000BD14FF0500383F31188BFF36F8FBFF35E
:104380004F8FFB6000BF00BFFDE700BF1837BD4681
:1043900080BD00BFB06E0008114B0008500D00201A
:1043A0004C0D0020380D0020300D002080B400AFEF
:1043B000044B1B680133034A136000BFBD465DF820
:1043C000047B7047540D002080B584B000AF0023FB
:1043D000FB600023BB60424B1B68002B0BD14FF0EE
:1043E000500383F31188BFF36F8FBFF34F8F3B6090
:1043F00000BF00BFFDE701F0C7FA394B1B68013B66
:10440000374A1360364B1B68002B62D1354B1B6853
:10441000002B5ED02FE0344BDB68DB68FB60FB6871
:1044200018331846FEF7D2FFFB6804331846FEF730
:10443000CDFFFB68DA6A2D4B1B689A4203D9FB68F3
:10444000DB6A2A4A1360FB68DA6A13469B0013444E
:104450009B00274A1A44FB68043319461046FEF7AE
:1044600058FFFB68DA6A234B1B68DB6A9A4202D367
:10447000214B01221A601C4B1B68002BCBD1FB681F
:10448000002B01D000F0FAFB1C4B1B687B607B68A3
:10449000002B10D000F046F80346002B02D0164B3C
:1044A00001221A607B68013B7B607B68002BF1D1A5
:1044B000124B00221A60104B1B68002B09D00123FD
:1044C000BB600F4B4FF080521A60BFF34F8FBFF3AA
:1044D0006F8F01F08BFABB6818461037BD4680BD60
:1044E000540D00202C0D0020EC0C0020340D002079
:1044F0005C08002058080020400D00203C0D0020E2
:1045000004ED00E080B483B000AF054B1B687B6016
:104510007B6818460C37BD465DF8047B704700BFCA
:10452000300D002080B586B000AF00237B614F4B7B
:104530001B68002B40F090804D4B1B6801333B61A2
:104540004B4A3B6913603B69002B21D1494B1B68E7
:104550001B68002B0BD04FF0500383F31188BFF37F
:104560006F8FBFF34F8F3B6000BF00BFFDE7414B34
:104570001B68FB60404B1B683E4A13603E4AFB6869
:1045800013603E4B1B6801333C4A136000F076FB1E
:104590003B4B1B683A699A4249D3364B1B681B68F0
:1045A000002B04D1364B4FF0FF321A603FE0314B05
:1045B0001B68DB68DB68BB60BB685B687B603A6973
:1045C0007B689A4203D22E4A7B6813602FE0BB6857
:1045D00004331846FEF7FAFEBB689B6A002B04D032
:1045E000BB6818331846FEF7F1FEBB68DA6A254B44
:1045F0001B689A4203D9BB68DB6A224A1360BB6816
:10460000DA6A13469B0013449B001F4A1A44BB6896
:10461000043319461046FEF77CFEBB68DA6A1B4B72
:104620001B68DB6A9A42B8D301237B61B5E7174B5D
:104630001B68DA6A144913469B0013449B000B4421
:104640001B68012B01D901237B61114B1B68002BD7
:1046500007D001237B6104E00E4B1B6801330D4A38
:1046600013607B6918461837BD4680BD540D002085
:10467000300D0020E40C0020E80C0020440D002048
:104680004C0D0020340D00205C080020580800204C
:10469000400D00203C0D002080B485B000AF284BB9
:1046A0001B68002B03D0274B01221A6042E0254BE8
:1046B00000221A60244B1B68FB6011E0FB68002B92
:1046C0000BD14FF0500383F31188BFF36F8FBFF30B
:1046D0004F8F7B6000BF00BFFDE7FB68013BFB60C5
:1046E0001A49FA6813469B0013449B000B441B684D
:1046F000002BE3D0FA6813469B0013449B00134A37
:104700001344BB60BB685B685A68BB685A60BB688F
:104710005A68BB6808339A4204D1BB685B685A6820
:10472000BB685A60BB685B68DB68094A1360064A6D
:10473000FB68136000BF1437BD465DF8047B70470B
:10474000540D0020400D0020340D00205C08002096
:104750005808002080B584B000AF786039607B686D
:10476000002B0BD14FF0500383F31188BFF36F8FF1
:10477000BFF34F8FFB6000BF00BFFDE7074B1B6817
:10478000183319467868FEF7E8FD0121386800F013
:104790003BFB00BF1037BD4680BD00BF580800205E
:1047A00080B586B000AFF860B9607A60FB68002B16
:1047B0000BD14FF0500383F31188BFF36F8FBFF31A
:1047C0004F8F7B6100BF00BFFDE7124B1B68002BC2
:1047D0000BD14FF0500383F31188BFF36F8FBFF3FA
:1047E0004F8F3B6100BF00BFFDE70B4B1B68BA68F2
:1047F00042F000429A61084B1B6818331946F8686A
:10480000FEF787FD0121786800F0FEFA00BF183737
:10481000BD4680BD540D00205808002080B586B0EC
:1048200000AFF860B9607A60FB68002B0BD14FF0E5
:10483000500383F31188BFF36F8FBFF34F8F7B61FA
:1048400000BF00BFFDE70A4B1B6818331946F86824
:10485000FEF75FFD7B68002B02D04FF0FF33BB609B
:104860007968B86800F0D0FA00BF1837BD4680BD3F
:104870005808002080B586B000AF78607B68DB68A0
:10488000DB683B613B69002B0BD14FF0500383F396
:104890001188BFF36F8FBFF34F8FFB6000BF00BF66
:1048A000FDE73B6918331846FEF790FD1D4B1B686A
:1048B000002B1DD13B6904331846FEF787FD3B6989
:1048C000DA6A194B1B689A4203D93B69DB6A164ABC
:1048D00013603B69DA6A13469B0013449B00134A3A
:1048E0001A443B69043319461046FEF712FD05E0F1
:1048F0003B69183319460E48FEF70BFD3B69DA6A2F
:104900000C4B1B68DB6A9A4205D901237B610A4B79
:1049100001221A6001E000237B617B691846183789
:10492000BD4680BD540D0020340D00205C080020E1
:10493000EC0C002058080020400D002080B586B007
:1049400000AF786039602A4B1B68002B0BD14FF009
:10495000500383F31188BFF36F8FBFF34F8F3B6119
:1049600000BF00BFFDE73B6843F000427B681A6070
:104970007B68DB687B617B69002B0BD14FF05003B8
:1049800083F31188BFF36F8FBFF34F8FFB6000BFBE
:1049900000BFFDE77868FEF719FD7B690433184610
:1049A000FEF714FD7B69DA6A124B1B689A4203D941
:1049B0007B69DB6A0F4A13607B69DA6A13469B00E6
:1049C00013449B000C4A1A447B6904331946104671
:1049D000FEF79FFC7B69DA6A084B1B68DB6A9A4228
:1049E00002D9074B01221A6000BF1837BD4680BDAF
:1049F000540D0020340D00205C08002058080020D1
:104A0000400D002080B483B000AF7860064B1A6878
:104A10007B681A60054B1A687B685A6000BF0C37C8
:104A2000BD465DF8047B7047440D0020300D00202A
:104A300080B588B000AF786039607B68002B0BD1FF
:104A40004FF0500383F31188BFF36F8FBFF34F8F85
:104A50003B6100BF00BFFDE73B68002B0BD14FF06F
:104A6000500383F31188BFF36F8FBFF34F8FFB6049
:104A700000BF00BFFDE700F087FF1D4B1B68BB6157
:104A80007B685B68BA69D31A7B613B681B68B3F1CA
:104A9000FF3F02D10023FB6123E07B681A68154BBE
:104AA0001B689A4207D07B685B68BA699A4202D356
:104AB0000123FB6115E03B681B687A699A420BD2BF
:104AC0003B681A687B69D21A3B681A607868FFF7FE
:104AD00099FF0023FB6104E03B6800221A60012378
:104AE000FB6100F083FFFB6918462037BD4680BD9F
:104AF000300D0020440D002080B400AF034B012294
:104B00001A6000BFBD465DF8047B7047400D002071
:104B100080B582B000AF786000F052F8064B1B6899
:104B2000012BF9D9054B4FF080521A60BFF34F8F1C
:104B3000BFF36F8FF0E700BF5C08002004ED00E0DA
:104B400080B582B000AF00237B600CE07A6813462A
:104B50009B0013449B00124A13441846FEF7ACFB1B
:104B60007B6801337B607B68372BEFD90D48FEF7FC
:104B7000A3FB0D48FEF7A0FB0C48FEF79DFB0C487D
:104B8000FEF79AFB0B48FEF797FB0B4B054A1A60A2
:104B90000A4B054A1A6000BF0837BD4680BD00BFFA
:104BA0005C080020BC0C0020D00C0020EC0C002085
:104BB000000D0020180D0020E40C0020E80C00205F
:104BC00080B582B000AF19E000F0DEFE104BDB686C
:104BD000DB687B607B6804331846FEF7F7FB0D4B00
:104BE0001B68013B0B4A13600B4B1B68013B0A4AD5
:104BF000136000F0FBFE786800F010F8064B1B68AD
:104C0000002BE1D100BF00BF0837BD4680BD00BF0B
:104C1000000D00202C0D0020140D002080B584B064
:104C200000AF78607B6893F85930002B08D17B681F
:104C30001B6B184601F098F8786801F095F819E0B8
:104C40007B6893F85930012B03D1786801F08CF818
:104C500010E07B6893F85930022B0BD04FF05003D3
:104C600083F31188BFF36F8FBFF34F8FFB6000BFDB
:104C700000BFFDE700BF1037BD4680BD80B483B0E4
:104C800000AF0C4B1B681B68002B04D10A4B4FF084
:104C9000FF321A6008E0074B1B68DB68DB687B604B
:104CA0007B685B68044A136000BF0C37BD465DF843
:104CB000047B7047E40C00204C0D002080B483B0CE
:104CC00000AF0B4B1B68002B02D101237B6008E077
:104CD000084B1B68002B02D102237B6001E00023FC
:104CE0007B607B6818460C37BD465DF8047B7047D7
:104CF000380D0020540D002080B586B000AF7860DC
:104D00007B683B6100237B617B68002B58D02F4B75
:104D10001B683A699A420BD04FF0500383F3118815
:104D2000BFF36F8FBFF34F8FFB6000BF00BFFDE786
:104D30003B691B6D002B0BD14FF0500383F311889F
:104D4000BFF36F8FBFF34F8FBB6000BF00BFFDE7A6
:104D50003B691B6D5A1E3B691A653B69DA6A3B6900
:104D6000DB6C9A422CD03B691B6D002B28D13B6930
:104D700004331846FEF72AFB3B69DA6C3B69DA62BA
:104D80003B69DB6AC3F138023B699A613B69DA6AC5
:104D90000F4B1B689A4203D93B69DB6A0C4A1360CC
:104DA0003B69DA6A13469B0013449B00094A1A4484
:104DB0003B69043319461046FEF7ABFA01237B61C9
:104DC0007B6918461837BD4680BD00BF58080020D3
:104DD000340D00205C08002080B483B000AF094B84
:104DE0001B689B697B60074B1B68DA6A054B1B6875
:104DF000C2F138029A617B6818460C37BD465DF8EF
:104E0000047B70475808002080B584B000AF7860FC
:104E10003960214B1B68FB60204B1B68043318462C
:104E2000FEF7D4FA7B68B3F1FF3F0AD13B68002B51
:104E300007D01A4B1B68043319461948FEF769FA64
:104E400026E0FA687B681344BB60144B1B68BA68A1
:104E50005A60BA68FB689A4209D2124B1A680F4B23
:104E60001B68043319461046FEF777FA10E00E4B24
:104E70001A680A4B1B68043319461046FEF76DFA90
:104E80000A4B1B68BA689A4202D2084ABB68136090
:104E900000BF1037BD4680BD300D002058080020EF
:104EA000180D0020E80C0020E40C00204C0D002020
:104EB00080B58AB004AF00237B6100F0B1FB1D4BCD
:104EC0001B68002B21D00023FB600023BB603A1D30
:104ED00007F1080107F10C031846FDF7DDFF7968BB
:104EE000BB68FA68029201930223009300230A46EA
:104EF00011491248FFF716F80346114A1360104B88
:104F00001B68002B01D001237B617B69002B0BD137
:104F10004FF0500383F31188BFF36F8FBFF34F8FB0
:104F20003B6100BF00BFFDE77B6918461837BD46EF
:104F300080BD00BF880D0020B86E0008B951000880
:104F40008C0D002080B588B002AFF860B9607A603F
:104F50003B602C2000F03AFE78617B69002B0DD07D
:104F60007B69002283F828207B6901933B6A0093C8
:104F70003B687A68B968F86800F045F87B691846BC
:104F80001837BD4680BD80B58AB002AFF860B96001
:104F90007A603B602C233B613B692C2B0BD04FF09C
:104FA000500383F31188BFF36F8FBFF34F8FBB6143
:104FB00000BF00BFFDE73B69FB6A002B0BD14FF040
:104FC000500383F31188BFF36F8FBFF34F8F7B6163
:104FD00000BF00BFFDE7FB6AFB61FB69002B0DD042
:104FE000FB69022283F82820FB690193BB6A0093C6
:104FF0003B687A68B968F86800F005F8FB691846FC
:105000002037BD4680BD80B586B000AFF860B9607E
:105010007A603B60BB68002B0BD14FF0500383F3E9
:105020001188BFF36F8FBFF34F8F7B6100BF00BF4D
:10503000FDE77B6A002B1ED000F0F2FA7B6AFA686B
:105040001A607B6ABA689A617B6A3A68DA617B6A3D
:105050003A6A1A627B6A04331846FEF74DF97B6898
:10506000002B08D07B6A93F8283043F00403DAB2AF
:105070007B6A83F8282000BF1837BD4680BD00003A
:1050800080B58AB000AFF860B9607A603B600023F9
:105090007B62FB68002B0BD14FF0500383F3118828
:1050A000BFF36F8FBFF34F8F3B6200BF00BFFDE7C1
:1050B000194B1B68002B2AD0BB683B617B687B6166
:1050C000FB68BB61BB68052B18DCFFF7F7FD0346E7
:1050D000022B09D1104B186807F1100100233A6B1D
:1050E000FEF730FB786212E00B4B186807F11001F5
:1050F00000230022FEF726FB786208E0064B1868C2
:1051000007F1100100233A68FEF71EFC78627B6A03
:1051100018462837BD4680BD880D002080B588B070
:1051200002AF78603960234B1B68DB68DB687B610A
:105130007B6904331846FEF749F97B6993F82830F8
:1051400003F00403002B23D07B699A697B68D11894
:105150007B683A68786900F0D5F80346002B20D0C8
:105160000023009300237A6800217869FFF788FF05
:1051700038613B69002B14D14FF0500383F3118841
:10518000BFF36F8FBFF34F8FFB6000BF00BFFDE722
:105190007B6993F8283023F00103DAB27B6983F846
:1051A00028207B691B6A7869984700BF1837BD467D
:1051B00080BD00BF800D002080B584B000AF786056
:1051C00007F10803184600F059F8F860BB68194663
:1051D000F86800F005F800F0D7F800BFF0E700002D
:1051E00080B584B000AF78603960FFF7DFF807F171
:1051F0000803184600F066F8F860BB68002B30D151
:105200003B68002B0AD17A68FB689A4206D8FFF700
:10521000DBF8F9687868FFF781FF24E03B68002B32
:1052200008D0134B1B681B68002B01D1012300E041
:1052300000233B600F4B18687A68FB68D31A3A6802
:105240001946FEF73BFEFFF7BFF80346002B0AD1D5
:10525000094B4FF080521A60BFF34F8FBFF36F8F2F
:1052600001E0FFF7B1F800BF1037BD4680BD00BFB9
:10527000840D0020880D002004ED00E080B485B08E
:1052800000AF78600E4B1B681B68002B01D1012218
:1052900000E000227B681A607B681B68002B05D148
:1052A000074B1B68DB681B68FB6001E00023FB60A9
:1052B000FB6818461437BD465DF8047B704700BF95
:1052C000800D002080B584B000AF7860FFF71AF938
:1052D000F8600B4B1B68FA689A4205D200F03AF965
:1052E0007B6801221A6002E07B6800221A60044A8F
:1052F000FB681360FB6818461037BD4680BD00BFD1
:10530000900D002080B586B000AFF860B9607A607B
:105310003B6000237B61FB68BA685A60FB68FA68EF
:105320001A61BA687B689A4212D87A683B68D21AC6
:10533000FB689B699A4202D301237B611BE0104BFF
:105340001A68FB68043319461046FEF706F812E0A7
:105350007A683B689A4206D2BA683B689A4202D39E
:1053600001237B6107E0074B1A68FB680433194689
:105370001046FDF7F2FF7B6918461837BD4680BD21
:10538000840D0020800D002080B58EB002AFCEE0ED
:105390007B68002B19DA3B1D0433FB62FB6A002B90
:1053A0000BD14FF0500383F31188BFF36F8FBFF31E
:1053B0004F8FFB6100BF00BFFDE7FB6A1B68FA6A05
:1053C0005068FA6A9268114698477B68002BC0F2D1
:1053D000AE80FB68BB62BB6A5B69002B04D0BB6A12
:1053E00004331846FDF7F2FF3B461846FFF76AFF05
:1053F00078627B68092B00F2978001A252F823F0B3
:105400002954000829540008295400089F54000812
:10541000B3540008FF540008295400082954000818
:105420009F540008B3540008BB6A93F8283043F037
:105430000103DAB2BB6A83F82820BA68BB6A9B69A9
:10544000D118BB687A6AB86AFFF75CFF0346002B85
:105450006CD0BB6A1B6AB86A9847BB6A93F828305D
:1054600003F00403002B61D0BA68BB6A9B691A443D
:105470000023009300230021B86AFFF701FE386281
:105480003B6A002B52D14FF0500383F31188BFF3D6
:105490006F8FBFF34F8FBB6100BF00BFFDE7BB6ADB
:1054A00093F8283023F00103DAB2BB6A83F828208E
:1054B0003DE0BB6A93F8283043F00103DAB2BB6ADF
:1054C00083F82820BA68BB6A9A61BB6A9B69002B83
:1054D0000BD14FF0500383F31188BFF36F8FBFF3ED
:1054E0004F8F7B6100BF00BFFDE7BB6A9A697B6A93
:1054F000D1187B6A7A6AB86AFFF704FF17E0BB6AC3
:1055000093F8283003F00203002B03D1B86A00F0AF
:105510002BFC0CE0BB6A93F8283023F00103DAB2CD
:10552000BB6A83F8282002E000BF00E000BF084B00
:105530001B68391D00221846FEF7A4FA0346002B0B
:105540007FF426AF00BF00BF3037BD4680BD00BF2F
:10555000880D002080B588B002AF49E02E4B1B6853
:10556000DB681B683B612C4B1B68DB68DB68FB60FE
:10557000FB6804331846FDF729FFFB681B6AF868CF
:105580009847FB6893F8283003F00403002B2FD0D2
:10559000FB689B693A691344BB60BA683B699A42ED
:1055A0000ED9FB68BA685A60FB68FA681A611A4B30
:1055B0001A68FB68043319461046FDF7CEFE17E063
:1055C0000023009300233A690021F868FFF758FD93
:1055D00078607B68002B0BD14FF0500383F3118868
:1055E000BFF36F8FBFF34F8F3B6000BF00BFFDE77E
:1055F000094B1B681B68002BB0D1074B1B687B61F4
:10560000064B1B68044A1360044A7B69136000BFA1
:105610001837BD4680BD00BF800D0020840D0020DE
:1056200080B582B002AF00F0AFF9154B1B68002BBC
:1056300020D11448FDF740FE1348FDF73DFE134B03
:10564000104A1A60124B104A1A6000230093114B43
:10565000114A10210A20FDF74DFF0346084A136046
:10566000074B1B68002B05D0054B1B680B491846E0
:10567000FEF7FAFB00F0BAF900BFBD4680BD00BFDF
:10568000880D0020580D00206C0D0020800D00209A
:10569000840D0020340E0020940D0020C06E000800
:1056A00080B586B000AF78607B687B617B68002B3B
:1056B0000BD14FF0500383F31188BFF36F8FBFF30B
:1056C0004F8FFB6000BF00BFFDE700F05DF97B6915
:1056D000DB693B6100F08AF93B6918461837BD4623
:1056E00080BD000080B58AB000AFF860B9607A6014
:1056F0003B606FF001037B61FB68BB61BB68FB61D2
:105700007B683B62064B186807F1140100233A6876
:10571000FEF71AF978627B6A18462837BD4680BDC5
:10572000880D002080B485B000AFF860B9607A6061
:10573000FB68043BFB60FB684FF080721A60FB68FB
:10574000043BFB60BB6823F00102FB681A60FB6846
:10575000043BFB600C4AFB681A60FB68143BFB606F
:105760007A68FB681A60FB68043BFB60FB686FF0BB
:1057700002021A60FB68203BFB60FB681846143786
:10578000BD465DF8047B70478D57000880B485B036
:1057900000AF00237B60134B1B68B3F1FF3F0BD0BE
:1057A0004FF0500383F31188BFF36F8FBFF34F8F18
:1057B000FB6000BF00BFFDE74FF0500383F311888B
:1057C000BFF36F8FBFF34F8FBB6000BF00BF7B681D
:1057D000002BFCD000BF00BF1437BD465DF8047B32
:1057E000704700BF0C000020000000000000000017
:1057F000074B19680868B0E8F04F80F30988BFF3D9
:105800006F8F4FF0000080F311887047AFF3008076
:105810005808002000BF00BF08480068006880F3F7
:1058200008884FF0000080F3148862B661B6BFF3B9
:105830004F8FBFF36F8F00DF00BF00BF08ED00E0A8
:1058400080B586B000AF474B1B68474A93420BD1E7
:105850004FF0500383F31188BFF36F8FBFF34F8F67
:10586000FB6000BF00BFFDE73E4B1B683F4A934211
:105870000BD14FF0500383F31188BFF36F8FBFF349
:105880004F8F3B6100BF00BFFDE7394B7B617B69F8
:105890001B78DBB27B607B69FF221A707B691B7807
:1058A000DBB2FB70FB78DBB203F05003DAB2314BB2
:1058B0001A70314B07221A6009E02F4B1B68013B1D
:1058C0002D4A1360FB78DBB25B00DBB2FB70FB7828
:1058D000DBB203F08003802BEFD0274B1B68C3F1B2
:1058E0000703042B0BD04FF0500383F31188BFF351
:1058F0006F8FBFF34F8FBB6000BF00BFFDE71E4B34
:105900001B681B021C4A13601B4B1B6803F4E063FB
:10591000194A13607B68DAB27B691A70174B1B68EF
:10592000164A43F470031360144B1B68134A43F088
:105930007043136000F0DAF8114B00221A6000F097
:10594000F9F8104B1B680F4A43F040431360FFF710
:1059500063FFFEF7A1FEFFF719FF00231846183773
:10596000BD4680BD00ED00E071C20F4170C20F4125
:1059700000E400E0840E0020880E002020ED00E00E
:105980000C00002034EF00E080B483B000AF4FF093
:10599000500383F31188BFF36F8FBFF34F8F7B608A
:1059A00000BF104B1B6801330E4A13600D4B1B6880
:1059B000012B10D10C4B1B68DBB2002B0BD04FF02E
:1059C000500383F31188BFF36F8FBFF34F8F3B609A
:1059D00000BF00BFFDE700BF0C37BD465DF8047B8C
:1059E000704700BF0C00002004ED00E080B483B0DD
:1059F00000AF124B1B68002B0BD14FF0500383F309
:105A00001188BFF36F8FBFF34F8F7B6000BF00BF64
:105A1000FDE70A4B1B68013B084A1360074B1B68F4
:105A2000002B05D100233B603B6883F3118800BF46
:105A300000BF0C37BD465DF8047B70470C000020AA
:105A4000EFF30980BFF36F8F154B1A681EF0100F2C
:105A500008BF20ED108A20E9F04F10602DE9090001
:105A60004FF0500080F31188BFF34F8FBFF36F8F5B
:105A7000FEF712FE4FF0000080F3118809BC196890
:105A80000868B0E8F04F1EF0100F08BFB0EC108AA5
:105A900080F30988BFF36F8F704700BFAFF30080BA
:105AA0005808002000BF00BF80B582B000AF4FF0A3
:105AB000500383F31188BFF36F8FBFF34F8F7B6069
:105AC00000BFFEF72FFD0346002B03D0064B4FF01F
:105AD00080521A6000233B603B6883F3118800BF4B
